:100000001EC042C041C040C03FC083C23DC031C2DB
:100010003BC03AC039C038C037C036C035C0000018
:100020000000370000000000380002020202020255
:10003000010204081020010300000400E20411245E
:100040001FBECFE5D2E0DEBFCDBF20E0AAE8B0E022
:1000500001C01D92AA3CB207E1F710E0A0E6B0E0B3
:10006000E2E6FAE002C005900D92AA38B107D9F78E
:1000700010E0CFE1D0E003C02197FE01EAD4CE31F9
:10008000D107D1F7D5D2EBC4BBCF08952FB7F894E1
:10009000FC01458556853AE06095089420F478B3D4
:1000A000752378BB04C078B3742B78BB00002BD2C7
:1000B0002AD229D228D266953A9581F72FBF81E0BE
:1000C00090E00895CF93DF936DE088EB90E0DEDF62
:1000D000EC016AE088EB90E0D9DF8C0F9D1FDF9187
:1000E000CF910895DC011F96ED91FC9120A131A1E3
:1000F00082A193A12817390779F0A2A1B3A1AE0F6D
:10010000BF1F8C9122A133A12F5F3F4F2F71332747
:1001100033A322A390E008958FEF9FEF0895DC01B1
:100120001F96ED91FC9120A131A182A193A12817E6
:10013000390739F082A193A1E80FF91F808190E07F
:1001400008958FEF9FEF0895DC011F96ED91FC91CC
:1001500080A191A122A133A1821B930B8F719927BA
:100160000895CF92DF92EF92FF920F931F93CF9358
:10017000DF936C01EB017B01E40EF51E10E000E063
:10018000CE15DF0561F06991D601ED91FC910190EA
:10019000F081E02DC6010995080F191FF1CFC801A4
:1001A000DF91CF911F910F91FF90EF90DF90CF9053
:1001B00008953FB7F89480918F0090919000A0919E
:1001C0009100B091920022B708B601FE05C02F3F02
:1001D00019F00196A11DB11D3FBFBA2FA92F982F6D
:1001E0008827BC01CD01620F711D811D911D43E067
:1001F000660F771F881F991F4A95D1F7089590E0E1
:10020000FC01EA5CFF4F3491FC01E05DFF4F24915B
:10021000FC01E65DFF4FE491EE23B9F0332329F0B2
:100220003130A1F48AB58F778ABDF0E0EE0FFF1F61
:10023000EC5DFF4FA591B4918FB7611118C0F89490
:10024000EC9120952E232C938FBF0895323019F412
:100250008AB58F7DE9CF333021F480B78F7D80BFA1
:10026000E4CF343011F78CB58F7D8CBDDECFF894A0
:10027000EC912E2BE8CFCF93DF9390E0FC01E05D73
:10028000FF4F2491865D9F4FFC0184918823D1F01C
:1002900090E0880F991FFC01E25EFF4FA591B49199
:1002A000FC01EC5DFF4FC591D49161110EC09FB769
:1002B000F8948C91E22FE0958E238C932881E22391
:1002C000E8839FBFDF91CF9108958FB7F894EC91A9
:1002D000E22BEC938FBFF6CFCF93DF93EC0161E07D
:1002E00084E0C9DF60E0209721F0CF3FD10529F4F9
:1002F00061E084E0DF91CF9182CF8CB580628CBDCC
:10030000CBBDDF91CF91089560E083E078DF90E08E
:1003100080E0E2DF1092B70008950F931F9300E290
:1003200011EA27E030E040E064E086E390E03BD172
:10033000611571058105910591F06F5F7F4F8F4FBA
:100340009F4F24E0660F771F881F991F2A95D1F7CA
:1003500033E096958795779567953A95D1F71F91F4
:100360000F9108958F929F92AF92BF92EF92FF925A
:100370000F931F93CF93DF93CDB7DEB7A1970FB63F
:10038000F894DEBF0FBECDBF162F042F19A2423046
:1003900008F40AE07E0121E2E20EF11C802E912C8D
:1003A000B12CA12C612FA501940131D3802F622F94
:1003B00025D3181B1A303CF5105DF70112937F010D
:1003C000122F732FCA01232B242B252B59F70190B1
:1003D0000020E9F73197AF014E195F09B70188EBAB
:1003E00090E0BFDEA1960FB6F894DEBF0FBECDBF82
:1003F000DF91CF911F910F91FF90EF90BF90AF9041
:100400009F908F900895195CD8CFCF92DF92EF9292
:10041000FF92CF93DF93AB01BC01990F880B990B2F
:100420004A30510519F56B017C01D0E0C0E0F7FEC0
:100430000DC06DE288EB90E029DEEC01F094E094D1
:10044000D094C094C11CD11CE11CF11C4AE0C7012E
:10045000B60188DFC80FD91F35DE8C0F9D1FDF91D5
:10046000CF91FF90EF90DF90CF9008957BDFEC016C
:10047000F3CF1F920F920FB60F9211242F933F9339
:100480004F935F937F938F939F93AF93BF93EF931C
:10049000FF934091C40020E038E035D034D033D011
:1004A00032D031D0889476B3742309F0089427951C
:1004B0003A9509F0F3CF27D026D0E091C700F0910C
:1004C000C80080A191A101968F71992742A153A1E3
:1004D0008417950739F0A0A1B1A1AE0FBF1F2C93CF
:1004E00091A380A3449AFF91EF91BF91AF919F9107
:1004F0008F917F915F914F913F912F910F900FBE00
:100500000F901F9018958091C900982F9A95F1F738
:1005100008951F920F920FB60F9211242F933F93BD
:100520008F939F93AF93BF9380918B0090918C009A
:10053000A0918D00B0918E0030918A0026E0230FAB
:100540002D3768F129E8230F0396A11DB11D2093D3
:100550008A0080938B0090938C00A0938D00B093C1
:100560008E0080918F0090919000A0919100B091A9
:1005700092000196A11DB11D80938F009093900071
:10058000A0939100B0939200BF91AF919F918F91F2
:100590003F912F910F900FBE0F901F9018950296CC
:1005A000A11DB11DD4CFCF92DF92EF92FF920F9396
:1005B0001F93E82FF92F08C000C000C000000150B1
:1005C00011092109310949F1908196239417A1F36A
:1005D00008C000C000C00000015011092109310904
:1005E000E1F0908196239413F4CFC12CD12CE12C0F
:1005F000F12C0AC08FEFC81AD80AE80AF80A0C15BD
:100600001D052E053F0549F080818623841791F34F
:100610006C2D7D2D8E2D9F2D04C060E070E080E05C
:1006200090E01F910F91FF90EF90DF90CF90089591
:10063000CF93DF93CDB7DEB76A970FB6F894DEBFDE
:100640000FBECDBF83E08ABD83BF789489B7826037
:1006500089BF80E48CBD8FEF8DBD87EC80BF86E8BD
:1006600086B961E083E007DE61E084E004DE60E0FB
:1006700083E0C5DD90E080E02FDE60E082E0FBDD1E
:1006800087E88093C9004398469A4798419A409AD0
:1006900087B32091C400922F9095982397BB88B37D
:1006A000822B88BB97B32091C500922B97BB88B350
:1006B000822B88BB449A439A47E150E061E770E09F
:1006C00088EB90E04EDDFEDCAE01475E5F4F5A8F57
:1006D000498FAA24A394B12C42E0242E58EC352E45
:1006E00061EE462E74E6572EEDE79E2EF6E98F2E2C
:1006F000A2E37A2EBBE46B2E10DE683978408105C8
:100700009105D0F3CE0101967C018C0106DEF80143
:10071000619371938F01498D5A8D4E175F07B1F721
:10072000F70180819181893E53E095070CF46CC0FC
:10073000B182A0823296E017F10799F710E000E04D
:1007400090E080E0F701219131917F012130310566
:1007500041F4082E02C0220F331F0A94E2F7022B45
:10076000132B01968C30910569F76AE070E0C8019F
:100770004CDE0115110521F06AE070E0C80145DE8C
:1007800062E070E0C80141DE6AE070E0C801880FF5
:10079000892F881F990B8F71992737DE6AE070E0E7
:1007A000C8018F77992731DE0538110509F4CEC0CD
:1007B0000CF044C00238110509F4A4C074F50038E7
:1007C000110509F480C00138110509F48CC0F1DC71
:1007D0008B0180E9C82EDD24D394E12CF12CE9DCD7
:1007E000601B710B683E734008F4E5C0C114D1046E
:1007F000E104F10409F480CF91E0C91AD108E108BD
:10080000F10808511C4FEBCF813991401CF0118247
:10081000108290CF0FEF1FEFA8CF0338110509F416
:1008200080C00438110599F6809260008091B7006D
:10083000813009F085C089E690E04DC00838110587
:1008400009F4A9C094F40638110509F48FC00738DB
:10085000110509F0BCCF409260008091B700813053
:1008600009F093C08EE190E036C0043F110549F0D5
:10087000053F1105D1F0053E110509F0A8CF44DD73
:10088000A6CF8091B70081113FDD61E083E0B7DC46
:10089000909160002FEF30E0A901491B5109CA0176
:1008A0001BDD81E08093B70092CF8091B70081116A
:1008B0002BDD60E083E0A3DC8091600090E00CDD44
:1008C0002092B70084CF709260008091B700813091
:1008D00021F48DEC90E000DD7ACF823009F077CF03
:1008E00082E390E0F8CF609260008091B7008130A1
:1008F00019F484EB90E0EFCF823009F068CF8BE4FD
:1009000090E0E9CF509260008091B700813019F4F7
:100910008BE990E0E0CF823009F059CF84E690E097
:10092000DACF909260008091B700813019F482E8AC
:1009300090E0D1CF823009F04ACF8DE790E0CBCF65
:10094000823009F044CF86E990E0C5CF5FEA50934A
:1009500060008091B700813019F480E590E0BBCF52
:10096000823009F034CF8FEA90E0B5CF309260004A
:100970008091B700813019F487E390E0ACCF8230EA
:1009800009F025CF88EC90E0A6CF823009F01FCF88
:1009900081EE90E0A0CF8FEF809360008091B70050
:1009A000813019F490E080E096CF823009F00FCFCB
:1009B0008FEF90E090CFC114D104E104F10409F06D
:1009C0000ECF9ACEE8EBF0E01382128288EE93E02D
:1009D000A0E0B0E084839583A683B78385E690E0AA
:1009E0009183808383E990E0908B878782E084877E
:1009F00081E085878EEF8687118A0895002480FD27
:100A0000060E660F11F08695D1F7802D0895A1E2AC
:100A10001A2EAA1BBB1BFD010DC0AA1FBB1FEE1F78
:100A2000FF1FA217B307E407F50720F0A21BB30BC3
:100A3000E40BF50B661F771F881F991F1A9469F73F
:100A400060957095809590959B01AC01BD01CF019B
:100A50000895EE0FFF1F0590F491E02D0994F8948E
:020A6000FFCFC6
:100A6200FF000000004600B100A40072008F0045A4
:100A72000049522F53657269616C20496E6974692D
:0A0A8200616C697A65643A20000097
:00000001FF
