:100000001EC042C041C040C03FC076C23DC024C2F5
:100010003BC03AC039C038C037C036C035C0000018
:100020000000370000000000380002020202020255
:1000300001020408102001030000040072041124CE
:100040001FBECFE5D2E0DEBFCDBF20E0A2E7B0E02B
:1000500001C01D92A33BB207E1F710E0A0E6B0E0BB
:10006000E2E8F9E002C005900D92A237B107D9F796
:1000700010E0CFE1D0E003C02197FE017AD4CE3169
:10008000D107D1F7C8D27BC4BBCF08952FB7F8945E
:10009000FC01458556853AE06095089420F478B3D4
:1000A000752378BB04C078B3742B78BB00001ED2D4
:1000B0001DD21CD21BD266953A9581F72FBF81E0E5
:1000C00090E00895DC011F96ED91FC9120A131A1F3
:1000D00082A193A12817390779F0A2A1B3A1AE0F8D
:1000E000BF1F8C9122A133A12F5F3F4F2F71332768
:1000F00033A322A390E008958FEF9FEF0895DC01D2
:100100001F96ED91FC9120A131A182A193A1281706
:10011000390739F082A193A1E80FF91F808190E09F
:1001200008958FEF9FEF0895DC011F96ED91FC91EC
:1001300080A191A122A133A1821B930B8F719927DA
:100140000895CF92DF92EF92FF920F931F93CF9378
:10015000DF936C01EB017B01E40EF51E10E000E083
:10016000CE15DF0561F06991D601ED91FC9101900A
:10017000F081E02DC6010995080F191FF1CFC801C4
:10018000DF91CF911F910F91FF90EF90DF90CF9073
:1001900008953FB7F8948091780090917900A091EC
:1001A0007A00B0917B0022B708B601FE05C02F3F50
:1001B00019F00196A11DB11D3FBFBA2FA92F982F8D
:1001C0008827BC01CD01620F711D811D911D43E087
:1001D000660F771F881F991F4A95D1F70895CF9210
:1001E000DF92EF92FF92CF93DF936B017C01D1DF1F
:1001F000EB01CFDF6C1B7D0B683E7340A0F0C11498
:10020000D104E104F10439F4DF91CF91FF90EF9034
:10021000DF90CF90089581E0C81AD108E108F10875
:10022000C851DC4FE6CFC114D104E104F10409F751
:10023000EBCF90E0FC01EA5CFF4F3491FC01E05D04
:10024000FF4F2491FC01E65DFF4FE491EE23B9F0EE
:10025000332329F03130A1F48AB58F778ABDF0E0DD
:10026000EE0FFF1FEC5DFF4FA591B4918FB76111A9
:1002700018C0F894EC9120952E232C938FBF0895ED
:10028000323019F48AB58F7DE9CF333021F480B74D
:100290008F7D80BFE4CF343011F78CB58F7D8CBD5E
:1002A000DECFF894EC912E2BE8CFCF93DF9390E044
:1002B000FC01E05DFF4F2491865D9F4FFC0184911E
:1002C0008823D1F090E0880F991FFC01E25EFF4F78
:1002D000A591B491FC01EC5DFF4FC591D4916111E2
:1002E0000EC09FB7F8948C91E22FE0958E238C93EB
:1002F0002881E223E8839FBFDF91CF9108958FB7D4
:10030000F894EC91E22BEC938FBFF6CFCF93DF9371
:10031000EC0161E084E0C9DF60E0209721F0CF3F8D
:10032000D10529F461E084E0DF91CF9182CF8CB5D3
:1003300080628CBDCBBDDF91CF91089561E083E0F9
:1003400078DF8FEF90E0E2DF1092A0000895EF9247
:10035000FF920F931F93CF93DF93F82E82E0E82E46
:10036000C0917200CF15E9F160E083E062DF8FEFAA
:1003700090E0CCDFE092A00010E000E0B19B29C04B
:100380000F5F1F4FD1E00A30110508F0D0E065E0A3
:1003900070E080E090E023DFD111F0CF10E000E0CA
:1003A000B1991BC00F5F1F4FD1E00A30110508F053
:1003B000D0E065E070E080E090E011DFD111F0CF97
:1003C000BDDFCF5FC0937200C33050F21092720055
:1003D000C7CFD1E010E000E0DACFD1E010E000E0DC
:1003E000E8CF61E083E025DF909160002FEF30E0FF
:1003F000A901491B5109CA0189DF81E08093A0004E
:10040000DF91CF911F910F91FF90EF9008950F937F
:100410001F9300E211EA27E030E040E064E086E369
:1004200090E0B4D0611571058105910591F06F5F81
:100430007F4F8F4F9F4F24E0660F771F881F991FB4
:100440002A95D1F733E096958795779567953A95F4
:10045000D1F71F910F9108951F920F920FB60F922F
:1004600011242F933F934F935F937F938F939F9389
:10047000AF93BF93EF93FF934091AD0020E038E03E
:1004800035D034D033D032D031D0889476B3742381
:1004900009F0089427953A9509F0F3CF27D026D094
:1004A000E091B000F091B10080A191A101968F710F
:1004B000992742A153A18417950739F0A0A1B1A1B2
:1004C000AE0FBF1F2C9391A380A3449AFF91EF918D
:1004D000BF91AF919F918F917F915F914F913F918C
:1004E0002F910F900FBE0F901F9018958091B20022
:1004F000982F9A95F1F708951F920F920FB60F92C9
:1005000011242F933F938F939F93AF93BF93809129
:10051000740090917500A0917600B09177003091B1
:10052000730026E0230F2D3768F129E8230F039687
:10053000A11DB11D209373008093740090937500EA
:10054000A0937600B0937700809178009091790025
:10055000A0917A00B0917B000196A11DB11D8093FE
:10056000780090937900A0937A00B0937B00BF91BC
:10057000AF919F918F913F912F910F900FBE0F9050
:100580001F9018950296A11DB11DD4CFCF92DF9276
:10059000EF92FF920F931F93E82FF92F08C000C02E
:1005A00000C00000015011092109310949F1908171
:1005B00096239417A1F308C000C000C000000150AA
:1005C000110921093109E1F0908196239413F4CFA8
:1005D000C12CD12CE12CF12C0AC08FEFC81AD80AFB
:1005E000E80AF80A0C151D052E053F0549F0808123
:1005F0008623841791F36C2D7D2D8E2D9F2D04C0A5
:1006000060E070E080E090E01F910F91FF90EF902C
:10061000DF90CF900895CF93DF93CDB7DEB7A1974A
:100620000FB6F894DEBF0FBECDBF83E08ABD83BF97
:10063000789489B7826089BF80E48CBD8FEF8DBDCF
:1006400087EC80BF86E886B961E083E02EDE61E05A
:1006500084E02BDE61E083E0ECDD8FEF90E056DE9E
:1006600060E082E022DE6E0129E1C20ED11C662428
:100670006394712C9AE0892E912CA12CB12C21EE3F
:10068000322E44244A9434E6532EC1DE6839784031
:1006900081059105D0F3CE0101967C018C01B7DE76
:1006A000F801619371938F01EC15FD05C1F7F70116
:1006B00080819181893E23E092070CF47DC0718294
:1006C00060823296E017F10799F710E000E090E0C1
:1006D00080E0F701219131917F012130310541F412
:1006E000082E02C0220F331F0A94E2F7022B132BAD
:1006F00001968C30910569F7A801012E000C660B5C
:10070000770B0F3F100741F46DE281EA90E0BEDC09
:1007100041E050E060E070E0242EE52FCB0119A20B
:100720007E0121E2E20EF11C622D7E2FA5019401D3
:10073000FED0822F6AE0F2D0281A822D8A300CF087
:1007400044C0805DF70182937F01222EE32FCA010E
:10075000232B242B252B41F7F70101900020E9F7EB
:100760003197AF014E195F09B70181EA90E0E9DCEA
:100770006DE081EA90E08ADC6AE081EA90E086DC64
:100780000115110509F481CF0638110509F493C04C
:1007900074F50238110509F472C0CCF40038110563
:1007A00009F456C00138110509F45EC060E971E032
:1007B00080E090E014DD69CF813991401CF0118216
:1007C00010827FCF0FEF1FEF97CF895CBBCF809157
:1007D000A0000438110509F465C00CF45AC0EFEA12
:1007E000E0936000813011F780E590E03BC0033B6F
:1007F000110541F184F40738110509F467C0083880
:100800001105A1F6409260008091A000813071F640
:1008100090E080E027C0053E110509F461C0043F67
:10082000110549F0043B110509F68091A0008111E2
:1008300085DD82E005C08091A00081117FDD80E030
:1008400086DDB4CF8091A000811178DD81E0F8CF02
:10085000F2E3F09360008091A000813009F0A6CF10
:100860008DEC90E053DDA2CF8BE48093600080910B
:10087000A000813009F09ACF84EB90E0F3CF509242
:1008800060008091A000813009F090CF8BE990E06A
:10089000E9CF2DE720936000813009F087CF82E80F
:1008A00090E0E0CF96E990936000813009F07ECF30
:1008B00089E690E0D7CFF8ECF09360008091A0003B
:1008C000813009F073CF87E390E0CCCF30926000A5
:1008D0008091A000813009F069CF8EE190E0C2CF15
:1008E0002DDD64CFE1EAF0E01382128288EE93E01E
:1008F000A0E0B0E084839583A683B78385E690E08B
:10090000918380838CE790E0908B878782E0848757
:1009100081E085878EEF8687118A0895002480FD07
:10092000060E660F11F08695D1F7802D0895A1E28D
:100930001A2EAA1BBB1BFD010DC0AA1FBB1FEE1F59
:10094000FF1FA217B307E407F50720F0A21BB30BA4
:10095000E40BF50B661F771F881F991F1A9469F720
:1009600060957095809590959B01AC01BD01CF017C
:100970000895EE0FFF1F0590F491E02D0994F8946F
:02098000FFCFA7
:10098200FF000000004600A100940062007F0045C5
:02099200000063
:00000001FF
